:020000020000FC
:1000000055CA18951895189518951895189524C4DB
:100010001895189518957FC1B1C21895189518951F
:100020003DC4189518951895189518951895F4C805
:1000300018951895030037050C005405370552052F
:100040003705560558055D055F05640566056B05B2
:10005000690587016A085008015708025A083738AD
:1000600008013D08014108014508014908014D0802
:10007000015008015308015708015A08015D0801A1
:100080006008016308016608FB0003007F080C009C
:1000900076087F087608790876087B0876087B085A
:1000A00076087D087D0876084300870200008701F6
:1000B0000001F8150CEF0AB903EC0BB900917E00B2
:1000C0000C6000937E0000B70A64E8D607B10363B2
:1000D00007B904B1036C04B929980895EE24DD240E
:1000E000FF24882499247724E0924101E092420180
:1000F000D8D07894089501E040E0209941E0E3D918
:10010000006114B1102B14B90CB50C640CBD61D492
:1001100000E00093CA02089530E060E005C0352F8A
:100120002395283048F06395E7E8F2E070E0E60FA9
:10013000F71F6F1570F420E0532F550F008110E06A
:10014000422FC6D90327007851F3539530E3352762
:10015000E7CF3083F62E089563D01DED58D080F898
:1001600083F803E0C02E74D069C017D003E311D028
:1001700079C013D005E53BD06BD03FC00ED007E768
:1001800008D066C029D038E812D062C006D009E98C
:10019000EECF0FD64ED600830895FF242F2D022FC9
:1001A0000395F02E089518D03AEA01D05BC050E0D4
:1001B00011D0308312D00ED000834F2D042F039521
:1001C000F02E08D010830F2D102F1395F12E2FD65F
:1001D00020830895FA012DC6FF244F2D342F339527
:1001E000F32E0895DADF0BEB02D03CD006C0D1DF4E
:1001F000689483F802E0C02E089520D024D023C054
:100200000FD01CEC04D083F803E016D01CC0D1D56D
:1002100010D6108306D0F9010CD600836894089597
:10022000FF242F2D122F1395F12E0895B6DF0EEE19
:10023000B0DF689483F802E0C02E14D02F2D2395F0
:10024000F22E0FEFA6DF2F2D2395F22EF901A2CF6C
:10025000689484F881F800E0009389000093880096
:1002600015D05ACF06B3066206BB0D2DE0D500812E
:100270004E2D2ED9007819F00AE012E002C00EE1EE
:1002800011E044D0E394689481F8EACF00916F00C4
:10029000026000936F000091810001600093810073
:1002A000089500918100087F0093810000E0009391
:1002B0008500009384000EE812E0109387000093FD
:1002C000860024D00EE111E010938B0000938A0089
:1002D00000EC0093800000E1009381000091B100E8
:1002E00003600093B100009170000D7F00937000D7
:1002F00002E007BB00916F00087D00936F0007E2EA
:1003000006BB05E005BD10936E00089510938900AB
:10031000009388000895BA93AA93FA93EA935A93A4
:100320004A933A932A931A930A935FB7E8E0F1E06D
:1003300001AD01FF9CC001AD06FF04C001AD0F7B04
:1003400001AF10C101AD04FF31C000AD039500AF96
:1003500000AD063020F400E00093890004C000E204
:1003600013E0109389000093880000AD0B3008F46F
:10037000F9C001AD0F7E01AF00E000AF00AD10E0AD
:10038000DF01A00FB11F9D960C9147A9A7D801705E
:1003900019F00EE113E002C004EF11E010938900A0
:1003A0000093880007A9039507ABDCC007A90830B4
:1003B00029F400E007AB00AD039500AF00AD10E0FD
:1003C000DF01A00FB11F9D960C9147A987D801703E
:1003D00039F00EE113E0109389000093880009C002
:1003E00004EF11E0109389000093880001AD0064D0
:1003F00001AF00AD013031F407A9002319F001ADC0
:10040000006201AF01AD05FF19C007A9002320ADAF
:1004100019F047A94A9502C02A9547E000B705FFA1
:100420000DC001E010E054D8302F309510E0DF010E
:10043000A20FB11F9D960C9103230C9307A903955E
:1004400007AB02E006BB06A910AD011709F08AC090
:1004500000E213E0109389000093880001AD016071
:1004600001AF00916F000D7F00936F007BC0082DDE
:1004700004FF19C0D39406E0D01620F400E00093E6
:10048000890004C00EE812E01093890000938800F0
:100490000BE0D01608F466C0E89484F8DD2406B3B7
:1004A000066206BB4BC0082D01FF5CC000916F00C7
:1004B000046000936F00B29A00916F000D7F00936B
:1004C0006F0008E0E016D1F5EE24FD1491F4689475
:1004D00087F886F801E0E02E0EE812E0109389001C
:1004E000009388000EE1E0928B0000938A00D39481
:1004F00039C0082D05FF02C00FEF06C00D2D10E01A
:10050000D801A957BD4F0C91A02ED39401E0D0166D
:1005100039F405A116A1077F16A305A3689486F8F0
:10052000082D03FF0BC0DC1449F4689485F803A17F
:1005300014A110938B0000938A0086F80D2D10E013
:10054000F801E957FD4F00814E2DC2D7007819F010
:100550000AE012E002C00EE111E01093890000935E
:100560008800E3945FBF09911991299139914991CC
:100570005991E991F991A991B9911895BA93AA93D2
:10058000FA93EA937A936A935A934A933A932A9303
:100590001A930A937FB70D2D10E0F801E957FD4F2C
:1005A000608130E0A8E0B1E0FD0110A5082D07FF53
:1005B00007C000918100087F00938100689482F851
:1005C000082D05FF05C002E0E01610F001E001C0B3
:1005D00000E0292D002319F427FB0EF0AAC007A183
:1005E00007FF0FC045A146A142FD03C0092D06FD2E
:1005F0005E9845A146A143FD06C0092D04FF03C036
:1006000001C05E985F982E9A092D07FF07C027E06A
:10061000E89497F80D2D0A9503AF03C02E2D2250B4
:10062000D3AE08E0E01631F4689497F803C000C038
:1006300000C01A951123D9F72E982F9A00B705FDFF
:1006400031E005E00A95F1F7000000B705FD3395AC
:1006500005E00A95F1F7000000B705FD339505E0C8
:100660000A95F1F700B705FD339505E00A95F1F716
:1006700000B705FD33952F9805A106A102FF5E9AEC
:1006800005A106A103FF5F9A3330E0F0072D04FFB8
:100690000FC0E89474F800E810E0422F1FD70095CF
:1006A00043AD50E0FA01E957FD4F1081102310834C
:1006B000FD0105A116A1086016A305A304A5030F5B
:1006C00004A707C002A5039502A703A50B5F031BA0
:1006D00003A7082D00FD2DC034AD03AD10E0F801D7
:1006E000E957FD4F0081422FF3D60327007839F0F8
:1006F000330F339500E30327FD0104AF03C0330F2D
:10070000FD0134AF273011F401E001C000E0182DE5
:10071000002379F017FB6EF404AD002305A116A1A8
:1007200011F00B7F01C0046016A305A300E0DC9666
:100730000C9302E0E01678F1262F30E089014E2D6F
:100740004250C6D6007879F000918100087F00936E
:10075000810089014E2D4A95BBD600780091B200E8
:1007600079F4025F0EC089014E2D4A95B1D600780A
:1007700091F400918100087F009381000091B20004
:10078000095F0093B300689492F8B99A00917000E1
:10079000026000937000DD2009F447C001E0E0161C
:1007A00009F043C00A2D00FF0BC000918100087FB3
:1007B0000093810067FB0091B2005EF0025F0AC007
:1007C00067FB96F000918100087F00938100009103
:1007D000B200095F0093B300689492F8B99A00914F
:1007E0007000026000937000092D02FF0BC0082DFD
:1007F00006FF1BC00091B300055B0093B300E894B3
:1008000086F813C0082D06FF10C000918100087FF4
:10081000009381000091B200055B0093B300B99A88
:100820000091700002600093700000916F000B7FD8
:1008300000936F0000916F00026000936F0006B399
:10084000066006BB7FBF09911991299139914991A1
:100850005991699179918DCE1A930A931FB700919E
:1008600070000D7F00937000082D07FF03C068948F
:1008700095F810C000918100016000938100092D5E
:1008800002FF03C0E89492F805C0082D06FF02C0DD
:10089000E89486F81FBF099119911895FA93EA9385
:1008A0003A932A931A930A933FB790D00481039501
:1008B00004838FD006FF16C0008111810F5F1F4F88
:1008C00000831183043A21E0120719F45B985F9AC0
:1008D00009C00637124031F400E0008301831BD4C5
:1008E0000F7B008376D007FF17C070D00281138181
:1008F0000F5F1F4F02831383043A21E0120719F49C
:100900005C985E9A09C00637124031F400E0028319
:10091000038301D40F770083FED30160008300912D
:10092000C6020B3038F000E00093C6026BD201AD76
:10093000086001AF0091420102FF36C0409846D0E6
:100940000581039505830781063078F457D203307B
:1009500090F001E057D212AD102712AF37D00781C7
:100960000395078300E0068306C04FD20E7F02AFD7
:1009700001A500FD04C00091C7020D33F8F045D277
:100980000B7F02AF00E00093C70201A50D7F01A716
:1009900001A50E7F01A702AD0E7F02AF00E000931C
:1009A000C8020093C9020AC011D028D2013130F028
:1009B00001E018B1102718B900E006833FBF099184
:1009C000199129913991E991F9911895E2ECF2E0A8
:1009D00008950091CA020895A1D32ED21AD247D207
:1009E0000AD20B7F18C2CED5082D01FD76C000912A
:1009F000410103FF0AC017D4002309F46EC051DC83
:100A000001D201AD077F01AF68C085D304FF65C087
:100A100013D2A6E1B1E0ED91FC9100810F7801586D
:100A200049F00A9589F00A95F1F00E5711F102503C
:100A300051F11DC0F3D105FF02C0539A18C05B9855
:100A4000539806E006D223C094F8689496F8539A17
:100A5000559A529A072D06FF02C0549A08C05C9816
:100A6000549807E0EFCFEED1072D03FF10C0B4DF9D
:100A70009EC1D4D1172D05FB06F316FBF6F2539851
:100A80005B985C98DECFDED1072D03FDF0CF80911F
:100A90002801A09129019091270100912601E4E30A
:100AA000F0E02BC566DB19C060DB17C067DB15C043
:100AB0002A2F182F092F66DB10C068DB0EC02A2FE3
:100AC000182F092F70DB09C08DDB07C0092F98DBB9
:100AD00004C0ACDB02C0092F3FDB082D02FF53C06E
:100AE000009187020B5B69F10151D9F1015139F095
:100AF0000151D1F1075651F00151B1F03DC065D11E
:100B0000009362015FD10093630136C058D1009316
:100B10005C015BD100935D0155D100935E014FD123
:100B2000002351F5CBD128C020E004E080D1108112
:100B300040D1E05BFE4F168B239503952032E0F405
:100B4000F5CF3DD100935F0140D1009360013AD1D0
:100B5000009361013AD1002379F434D1002361F488
:100B6000E1CF00918802EECF2AD100938601009157
:100B70008601002309F4CCD2E89493F84AD1092DD8
:100B800005FFFDCF74D13ED107A107FD1CC0082D84
:100B900004FF19C002E0D016B0F005E0D01698F4BA
:100BA00007E085D1007216E010937C0015E01A95DD
:100BB000F1F7000010B7107201171DD111F41F7E5C
:100BC00001C0106128D1082D1091410101FB0EF4E4
:100BD000C8C011FB0EF4C5C09ED200FFC2C0008188
:100BE0000E7F008300917B000F7B00937B0000E66B
:100BF00030D1E2D0036800937A0000B7077F00BFCE
:100C0000008107FD30C05E9827D1076040D1D4D065
:100C100006FDFDCF5E9AE8D005890395058BDBD0F4
:100C200022853385200F311F2287338705890023D2
:100C3000D1F4232F30E022871387E8D208F05CC07C
:100C4000026068D2006800835E98549A5C9A2C33E4
:100C500018F41AD11460DFD0BBD010F4689476F881
:100C6000C3D032873387B5DE06FD2FC05F98F4D03E
:100C700006600DD1A1D006FDFDCF5F9AB5D00489E5
:100C80000395048BA8D020853185200F311F208744
:100C9000318704890023C9F4232F30E0208711878E
:100CA000B5D288F5016036D2006400835F98539A0C
:100CB0005B9A2C3318F4E8D01860ADD089D010F4CA
:100CC000689475F891D03087318700B70A65E6D00F
:100CD00073D00F7700937A0002E0E9D005FF1AC0C5
:100CE000689473F881D00281039502830336D1F4AE
:100CF000C8D0126090D016C00D7F7CD01B7F77D0FB
:100D000076F85E9AA9CF0E7F75D0177F70D075F8F0
:100D10005F9AD4CF69D072D0033621F4B2D01D7F50
:100D200066D073F803E0C3D005FF0CC0689470F878
:100D30005BD0038103950383033699F49ED0116041
:100D40006AD00FC051D0078103950783033649F459
:100D500094D01E7F4CD070F804C010D10DB507FFA1
:100D6000289A0DB507FDF9CF00913101109131019D
:100D700000FB16F011FB8EF448D002FD03C002AD5B
:100D8000046002AF01A500FF03C002AD00FF04C074
:100D9000419A459A409803C040984198459874D02C
:100DA0002091410115FB1EF423FB0EF0ECCEE4E094
:100DB000EEC330E0F901089500917A0008950091A2
:100DC0008902089500918B02089500918A02089586
:100DD00006D01A35089503D0012F10E00895009130
:100DE0007800109179000895E0E5F1E0089513D0BE
:100DF000E894089510D005A116A1089506810395E1
:100E000006830895E8E0F1E00895E8E0F1E002AD3E
:100E100008953AD0106216A305A30895689494F833
:100E2000E89496F8549A559A529A072D089510E02E
:100E3000F801E957FD4F089500810F7E0083E89483
:100E400074F808955598539A549A529A94F896F8CB
:100E500002E000937C0008950AE10A95F1F700C0D2
:100E600000917C00087FF5DF00917C0008958824C4
:100E70009924DD24EE24FF24089500E003830783F2
:100E800003C000E002830683E8E0F1E0B4CFE1DFD5
:100E900000917A00006400937A00089500BF06E094
:100EA000D8DF00917B00006400937B000895D1DFC0
:100EB00005E00A95F1F7000000B70895092D05FF38
:100EC000FDCF0AE10A95F1F700C000917B000F7B8E
:100ED00000937B0000E600937C0000917A00036899
:100EE00000937A0000B7077F00BF00917C00087F65
:100EF00000937C00092D04FF07C000917C00066070
:100F000000937C005F980FC0092D06FF07C0009179
:100F10007C00076000937C005E9805C000917C0017
:100F2000026000937C000AE10A95F1F700C000918D
:100F30007A00006400937A0000917A0006FDFCCFED
:100F40005F9A5E9A00917800109179001A3538F412
:100F5000E8E0F1E005A116A10B7F16A305A300B7F9
:100F60000A6500BF06E000937C0000917B000064EE
:100F700000937B0000917A000F778DCF8A930DB597
:100F80000EB52898B02E01E1B01691F40DB507FF0B
:100F9000289A00E00093BE020093BD020DD1BB244D
:100FA000008104600083B092BF0200810062AAC089
:100FB00002E1B01651F40091BE020023C1F4ABD09F
:100FC0000860008300810B7F0083A5D002FF45C02D
:100FD0000DB507FF289A0091BF020023A1F4092D47
:100FE00003FF07C00B2D0095007819F089C090D041
:100FF00086C0B092AE0201E00093BF02DAD002894F
:101000000B25028B80C01B2D107F09F079C0108149
:1010100011FF1AC012E0208121272083CAD0118934
:101020001B29118B212F0F3048F410E0F801E455F3
:10103000FD4F2283BED003890395038B02890227CB
:10104000028B00E0018B5FC00B2D02950093BD0267
:1010500002E010811027108356C0008103FF53C0A7
:101060008091AE02082F07FBDEF5E2E5F0E045C215
:10107000282F13E006E055D046C0282F19E001E0E4
:10108000FACF282F14E002E0F6CF282F11E203E078
:10109000F2CF282F14E004E0EECF37D005E0EBCFFD
:1010A00034D007E0E8CF282F15E008E0E4CF2DD0BA
:1010B00009E0E1CF2AD00AE0DECF27D00BE0DBCF7A
:1010C00024D00CE0D8CF21D00DE0D5CF282F13E0CD
:1010D0000EE0D1CF71D00DB507FD15C0289A13C011
:1010E0001DB517FF289AEAE8F0E007C201E068D0D2
:1010F0000AC003E0FCCF04E0FACF02E0F8CF0ED044
:101100000081017D008389910895282F12E00895C0
:10111000BBDE67CC80DE02D000810895EAECF2E00D
:10112000089530D2FBDF308135FF13C030E03093BB
:10113000C00230813F7D308330E03093C10232E025
:10114000039FF001E85FFE4F4081518132D0408320
:10115000518326FBDEF42DD004890395048B0117FF
:1011600031F40091C10202270EBD26D00AC0A08131
:10117000B1810D91A083B183102F05890127058BC3
:101180001EBD0DB507FD14C0289A12C00DB507FF8E
:10119000289A01E00AC0202F3BD022810AD0A081EA
:1011A000B1812D93A083B18303950117A1F704D0DA
:1011B000FECDECEAF2E00895B1DF0081017DEBC7DE
:1011C00020E007C025D01281F901E85FFE4F168F9D
:1011D00023952017B9F7F0DF689493F855DE1F7D4B
:1011E00099DF0061008300E0009332010093330136
:1011F0000093340107DE05A10F7005A3068D0F7063
:10120000068F029515A1102B15A308952A353CCE03
:10121000D0DDE455FD4F08950A930FB7689474F834
:101220000FBF09911895BA93AA939A938A93A8E04D
:10123000B1E0FD0101AD01FD16C05298539A559AD7
:10124000549AE89494F896F803E000937C0000E048
:1012500007AB00AF06AB01AD0E7001AF02AD0D7F65
:1012600002AF5DD08FD0FD0101AD00FF52C080E024
:1012700090E087AB80AF86AB01AD0E7001AF02ADE1
:101280000D7F02AF4CD0FD0101AD0D7F01AFBE96C9
:1012900008E0219130E0820F931F0A95D1F7892B46
:1012A00011F401E037C0FD0135A78D01025D1F4F2C
:1012B00028E065A5F80141918F01E7E8F1E050E0F1
:1012C0004627E40FF51F3081FD0135A72A9589F7E0
:1012D00005A5002339F005AD039505AF01AD0B7FE2
:1012E00001AFDFCF01AD02FDDCCF01AD046001AF86
:1012F00002AD026002AF10E425A136A1312725A37B
:1013000036A3FE969E9608E01D9111930A9549F228
:10131000FBCF00E089919991A991B991089500E0DE
:10132000009381000093800000916F00097D00937D
:101330006F0006E206BB00E0009385000093840086
:1013400000E213E010938700009386001093890059
:101350000093880004EF11E010938B0000938A0043
:1013600000918000006C009380000091810000617A
:101370000093810000916F00097D00936F0006E2E9
:1013800006BB089500E000933E0120913E01022F2C
:10139000039500933E010FE030E0F901E85FFE4F56
:1013A00005A710D008E020913E01122F139510934D
:1013B0003E011FEF30E0F901E85FFE4F15A70A95E7
:1013C00091F70895E8E0F1E001AD006101AF01ADF2
:1013D000026001AF00E213E01093890000938800DF
:1013E00055C7BA93AA93A0E0B1E09D012C5F3F4F8F
:1013F0000CEF1FE144E0F80155918F01F901519381
:101400009F014A95C1F756D669D675D60FEF19E6F2
:1014100028E1015010402040E1F700C000000FEF2C
:1014200019E628E1015010402040E1F700C000001B
:101430000FEF19E628E1015010402040E1F700C00D
:1014400000000FEF19E628E1015010402040E1F7BD
:1014500000C000000FEF19E628E1015010402040C5
:10146000E1F700C00000FD01428142954F704695B2
:10147000438322812F71E8E0F1E020A722E133E0ED
:1014800050E04A5B6D917C911197461B570B440FBE
:10149000551F440F551F440F551F241B350B23A305
:1014A00034A3A1DAE0CF00008895FECF0AE00DBF9B
:1014B00003E00EBFCBE0D4E075D0002309F082D06A
:1014C00090DFF1DFF0CF4A9512F0000FE1F70895B9
:1014D0004A951AF0000F111FFBCF08954A951AF094
:1014E00015950795FBCF0895759165915591459197
:1014F000159011FA259035900895F9DF041B10E03E
:1015000003C0F4DF041B150B20E030E005C0ECDF66
:10151000041B150B260B370BB8F010FC17C04591B8
:101520000590E00FF11F0417100540E02407340771
:1015300058F436F404910024F101E01BF0090994F9
:10154000E00FF11F25903590F101099411F4D6F7C1
:10155000F1CF31960EF0319650E060E070E04591A9
:101560004B3F48F089F34F3F29F04E3F11F0759102
:10157000659155914591041B150B260B370B39F3DB
:1015800018F3E7CFBA93AA939A938A930895BB81ED
:10159000AA8199818881F0E00FB6F894CE0FDF1F01
:1015A0000FBE089501E0089520E006D0E9F7089500
:1015B000259102D0E9F708952D9301501040202F76
:1015C000212B089588EA90E0FC0105911491FC011B
:1015D0003296A591B491FC01349625913491422F15
:1015E000432B19F0F901E4DF01C0DEDF069610E0BD
:1015F000843B910748F308950C00000000000000B0
:101600004E0146015C0166015F0186012D012F013B
:101610000401310102013201330134016201000091
:101620000000000000002081000000000000000019
:1016300000000000000000000000000000000304A3
:1016400005060708090A010200000000000000006A
:10165000000000000B0CEE2D2EEE000000000D0E21
:101660000F101112131415161718191A1B1C1D1E12
:101670001F202122232425262728292A2B2C30002D
:101680005EBCE2613FDD83C29C7E20A3FD1F419DC5
:10169000C3217FFCA2401E5F01E3BD3E6082DC23CC
:1016A0007D9FC1421CFEA0E1BF5D0380DE3C62BEA7
:1016B000E0025CDF81633D7C22C09E1D43A1FF46AA
:1016C00018FAA427799BC584DA3866E5BB5907DB8D
:1016D000856739BAE406581947A5FB7826C49A6588
:1016E0003BD987045AB8E6A7F91B45C6987A24F86F
:1016F000A6441A99C7257B3A6486D85B05E7B98C5E
:10170000D2306EEDB3510F4E10F2AC2F7193CD115C
:101710004FADF3702ECC92D38D6F31B2EC0E50AF33
:10172000F1134DCE90722C6D33D18F0C52B0EE323E
:101730006C8ED0530DEFB1F0AE4C1291CF2D73CA19
:10174000947628ABF517490856B4EA6937D58B5714
:1017500009EBB536688AD495CB2977F4AA4816E9FF
:10176000B7550B88D6346A2B7597C94A14F6A874F6
:101770002AC896154BA9F7B6E80A54D7896B359550
:1017800018951895189518951895189518951895F1
:1017900018951895189518951895189518951895E1
:1017A00018951895189518951895189518951895D1
:1017B00018951895189518951895189518951895C1
:101FF0001895189518951895189518952001F31DA2
:0400000300000000F9
:00000001FF
